{
  "contracts/ExampleV2 .sol": {
    "ExampleV2": {
      "abi": [
        {
          "inputs": [
            {
              "internalType": "address",
              "name": "_identityVerificationHubV2",
              "type": "address"
            },
            {
              "internalType": "uint256",
              "name": "_scope",
              "type": "uint256"
            }
          ],
          "stateMutability": "nonpayable",
          "type": "constructor"
        },
        {
          "inputs": [],
          "name": "InvalidDataFormat",
          "type": "error"
        },
        {
          "inputs": [
            {
              "internalType": "address",
              "name": "owner",
              "type": "address"
            }
          ],
          "name": "OwnableInvalidOwner",
          "type": "error"
        },
        {
          "inputs": [
            {
              "internalType": "address",
              "name": "account",
              "type": "address"
            }
          ],
          "name": "OwnableUnauthorizedAccount",
          "type": "error"
        },
        {
          "inputs": [],
          "name": "UnauthorizedCaller",
          "type": "error"
        },
        {
          "anonymous": false,
          "inputs": [
            {
              "indexed": true,
              "internalType": "address",
              "name": "previousOwner",
              "type": "address"
            },
            {
              "indexed": true,
              "internalType": "address",
              "name": "newOwner",
              "type": "address"
            }
          ],
          "name": "OwnershipTransferred",
          "type": "event"
        },
        {
          "anonymous": false,
          "inputs": [
            {
              "indexed": true,
              "internalType": "uint256",
              "name": "newScope",
              "type": "uint256"
            }
          ],
          "name": "ScopeUpdated",
          "type": "event"
        },
        {
          "inputs": [],
          "name": "configId",
          "outputs": [
            {
              "internalType": "bytes32",
              "name": "",
              "type": "bytes32"
            }
          ],
          "stateMutability": "view",
          "type": "function"
        },
        {
          "inputs": [
            {
              "internalType": "bytes32",
              "name": "destinationChainId",
              "type": "bytes32"
            },
            {
              "internalType": "bytes32",
              "name": "userIdentifier",
              "type": "bytes32"
            },
            {
              "internalType": "bytes",
              "name": "userDefinedData",
              "type": "bytes"
            }
          ],
          "name": "getConfigId",
          "outputs": [
            {
              "internalType": "bytes32",
              "name": "",
              "type": "bytes32"
            }
          ],
          "stateMutability": "view",
          "type": "function"
        },
        {
          "inputs": [
            {
              "internalType": "bytes",
              "name": "output",
              "type": "bytes"
            },
            {
              "internalType": "bytes",
              "name": "userData",
              "type": "bytes"
            }
          ],
          "name": "onVerificationSuccess",
          "outputs": [],
          "stateMutability": "nonpayable",
          "type": "function"
        },
        {
          "inputs": [],
          "name": "owner",
          "outputs": [
            {
              "internalType": "address",
              "name": "",
              "type": "address"
            }
          ],
          "stateMutability": "view",
          "type": "function"
        },
        {
          "inputs": [],
          "name": "renounceOwnership",
          "outputs": [],
          "stateMutability": "nonpayable",
          "type": "function"
        },
        {
          "inputs": [],
          "name": "scope",
          "outputs": [
            {
              "internalType": "uint256",
              "name": "",
              "type": "uint256"
            }
          ],
          "stateMutability": "view",
          "type": "function"
        },
        {
          "inputs": [
            {
              "internalType": "uint256",
              "name": "in_scope",
              "type": "uint256"
            }
          ],
          "name": "setScope",
          "outputs": [],
          "stateMutability": "nonpayable",
          "type": "function"
        },
        {
          "inputs": [
            {
              "internalType": "address",
              "name": "newOwner",
              "type": "address"
            }
          ],
          "name": "transferOwnership",
          "outputs": [],
          "stateMutability": "nonpayable",
          "type": "function"
        },
        {
          "inputs": [
            {
              "internalType": "bytes",
              "name": "proofPayload",
              "type": "bytes"
            },
            {
              "internalType": "bytes",
              "name": "userContextData",
              "type": "bytes"
            }
          ],
          "name": "verifySelfProof",
          "outputs": [],
          "stateMutability": "nonpayable",
          "type": "function"
        }
      ],
      "evm": {
        "bytecode": {
          "linkReferences": {},
          "object": "60a060405234801561001057600080fd5b506040516118593803806118598339818101604052810190610032919061025a565b3382828173ffffffffffffffffffffffffffffffffffffffff1660808173ffffffffffffffffffffffffffffffffffffffff1681525050806000819055505050600073ffffffffffffffffffffffffffffffffffffffff168173ffffffffffffffffffffffffffffffffffffffff16036100e45760006040517f1e4fbdf70000000000000000000000000000000000000000000000000000000081526004016100db91906102a9565b60405180910390fd5b6100f3816100fb60201b60201c565b5050506102c4565b6000600160009054906101000a900473ffffffffffffffffffffffffffffffffffffffff16905081600160006101000a81548173ffffffffffffffffffffffffffffffffffffffff021916908373ffffffffffffffffffffffffffffffffffffffff1602179055508173ffffffffffffffffffffffffffffffffffffffff168173ffffffffffffffffffffffffffffffffffffffff167f8be0079c531659141344cd1fd0a4f28419497f9722a3daafe3b4186f6b6457e060405160405180910390a35050565b600080fd5b600073ffffffffffffffffffffffffffffffffffffffff82169050919050565b60006101f1826101c6565b9050919050565b610201816101e6565b811461020c57600080fd5b50565b60008151905061021e816101f8565b92915050565b6000819050919050565b61023781610224565b811461024257600080fd5b50565b6000815190506102548161022e565b92915050565b60008060408385031215610271576102706101c1565b5b600061027f8582860161020f565b925050602061029085828601610245565b9150509250929050565b6102a3816101e6565b82525050565b60006020820190506102be600083018461029a565b92915050565b6080516115736102e6600039600081816101bb015261045101526115736000f3fe608060405234801561001057600080fd5b50600436106100935760003560e01c8063ada1b31911610066578063ada1b319146100fa578063b4ba6ff91461012a578063b564eb2714610146578063d161802b14610164578063f2fde38b1461018057610093565b80636e62d0a814610098578063715018a6146100b65780638d2d8d6a146100c05780638da5cb5b146100dc575b600080fd5b6100a061019c565b6040516100ad9190610782565b60405180910390f35b6100be6101a5565b005b6100da60048036038101906100d591906108f7565b6101b9565b005b6100e4610265565b6040516100f191906109b0565b60405180910390f35b610114600480360381019061010f9190610a01565b61028f565b6040516101219190610a7f565b60405180910390f35b610144600480360381019061013f9190610ac6565b6102be565b005b61014e6102d2565b60405161015b9190610a7f565b60405180910390f35b61017e60048036038101906101799190610b53565b6102d8565b005b61019a60048036038101906101959190610c00565b61050b565b005b60008054905090565b6101ad610591565b6101b76000610618565b565b7f000000000000000000000000000000000000000000000000000000000000000073ffffffffffffffffffffffffffffffffffffffff163373ffffffffffffffffffffffffffffffffffffffff161461023e576040517f5c427cd900000000000000000000000000000000000000000000000000000000815260040160405180910390fd5b60008280602001905181019061025491906111a6565b905061026081836106de565b505050565b6000600160009054906101000a900473ffffffffffffffffffffffffffffffffffffffff16905090565b60007faa3a22b95171a99564d606797e30a87cee76d573673a637ca4f97cac80360b2d60001b90509392505050565b6102c6610591565b6102cf8161072a565b50565b60025481565b6020848490501015610316576040517fa512e2ff00000000000000000000000000000000000000000000000000000000815260040160405180910390fd5b6040828290501015610354576040517fa512e2ff00000000000000000000000000000000000000000000000000000000815260040160405180910390fd5b60008435905060008383600090602092610370939291906111f9565b9061037b919061124c565b905060008484602090604092610393939291906111f9565b9061039e919061124c565b90506000858560409080926103b5939291906111f9565b8080601f016020809104026020016040519081016040528093929190818152602001838380828437600081840152601f19601f820116905080830192505050505050509050600061040784848461028f565b905060006002600060081b600054888d8d6020908092610429939291906111f9565b60405160200161043e969594939291906113ad565b60405160208183030381529060405290507f000000000000000000000000000000000000000000000000000000000000000073ffffffffffffffffffffffffffffffffffffffff1663f7e83aee82848b8b6040516020016104a19392919061140a565b6040516020818303038152906040526040518363ffffffff1660e01b81526004016104cd929190611489565b600060405180830381600087803b1580156104e757600080fd5b505af11580156104fb573d6000803e3d6000fd5b5050505050505050505050505050565b610513610591565b600073ffffffffffffffffffffffffffffffffffffffff168173ffffffffffffffffffffffffffffffffffffffff16036105855760006040517f1e4fbdf700000000000000000000000000000000000000000000000000000000815260040161057c91906109b0565b60405180910390fd5b61058e81610618565b50565b610599610761565b73ffffffffffffffffffffffffffffffffffffffff166105b7610265565b73ffffffffffffffffffffffffffffffffffffffff1614610616576105da610761565b6040517f118cdaa700000000000000000000000000000000000000000000000000000000815260040161060d91906109b0565b60405180910390fd5b565b6000600160009054906101000a900473ffffffffffffffffffffffffffffffffffffffff16905081600160006101000a81548173ffffffffffffffffffffffffffffffffffffffff021916908373ffffffffffffffffffffffffffffffffffffffff1602179055508173ffffffffffffffffffffffffffffffffffffffff168173ffffffffffffffffffffffffffffffffffffffff167f8be0079c531659141344cd1fd0a4f28419497f9722a3daafe3b4186f6b6457e060405160405180910390a35050565b60008260e001515111610726576040517f08c379a000000000000000000000000000000000000000000000000000000000815260040161071d9061151d565b60405180910390fd5b5050565b80600081905550807f379705e49518633184cc7e64f6a0c9361e35f275be47634afb6c2c603e5311e560405160405180910390a250565b600033905090565b6000819050919050565b61077c81610769565b82525050565b60006020820190506107976000830184610773565b92915050565b6000604051905090565b600080fd5b600080fd5b600080fd5b600080fd5b6000601f19601f8301169050919050565b7f4e487b7100000000000000000000000000000000000000000000000000000000600052604160045260246000fd5b610804826107bb565b810181811067ffffffffffffffff82111715610823576108226107cc565b5b80604052505050565b600061083661079d565b905061084282826107fb565b919050565b600067ffffffffffffffff821115610862576108616107cc565b5b61086b826107bb565b9050602081019050919050565b82818337600083830152505050565b600061089a61089584610847565b61082c565b9050828152602081018484840111156108b6576108b56107b6565b5b6108c1848285610878565b509392505050565b600082601f8301126108de576108dd6107b1565b5b81356108ee848260208601610887565b91505092915050565b6000806040838503121561090e5761090d6107a7565b5b600083013567ffffffffffffffff81111561092c5761092b6107ac565b5b610938858286016108c9565b925050602083013567ffffffffffffffff811115610959576109586107ac565b5b610965858286016108c9565b9150509250929050565b600073ffffffffffffffffffffffffffffffffffffffff82169050919050565b600061099a8261096f565b9050919050565b6109aa8161098f565b82525050565b60006020820190506109c560008301846109a1565b92915050565b6000819050919050565b6109de816109cb565b81146109e957600080fd5b50565b6000813590506109fb816109d5565b92915050565b600080600060608486031215610a1a57610a196107a7565b5b6000610a28868287016109ec565b9350506020610a39868287016109ec565b925050604084013567ffffffffffffffff811115610a5a57610a596107ac565b5b610a66868287016108c9565b9150509250925092565b610a79816109cb565b82525050565b6000602082019050610a946000830184610a70565b92915050565b610aa381610769565b8114610aae57600080fd5b50565b600081359050610ac081610a9a565b92915050565b600060208284031215610adc57610adb6107a7565b5b6000610aea84828501610ab1565b91505092915050565b600080fd5b600080fd5b60008083601f840112610b1357610b126107b1565b5b8235905067ffffffffffffffff811115610b3057610b2f610af3565b5b602083019150836001820283011115610b4c57610b4b610af8565b5b9250929050565b60008060008060408587031215610b6d57610b6c6107a7565b5b600085013567ffffffffffffffff811115610b8b57610b8a6107ac565b5b610b9787828801610afd565b9450945050602085013567ffffffffffffffff811115610bba57610bb96107ac565b5b610bc687828801610afd565b925092505092959194509250565b610bdd8161098f565b8114610be857600080fd5b50565b600081359050610bfa81610bd4565b92915050565b600060208284031215610c1657610c156107a7565b5b6000610c2484828501610beb565b91505092915050565b600080fd5b600080fd5b600081519050610c46816109d5565b92915050565b600081519050610c5b81610a9a565b92915050565b600067ffffffffffffffff821115610c7c57610c7b6107cc565b5b602082029050919050565b6000610c9a610c9584610c61565b61082c565b90508060208402830185811115610cb457610cb3610af8565b5b835b81811015610cdd5780610cc98882610c4c565b845260208401935050602081019050610cb6565b5050509392505050565b600082601f830112610cfc57610cfb6107b1565b5b6004610d09848285610c87565b91505092915050565b600067ffffffffffffffff821115610d2d57610d2c6107cc565b5b610d36826107bb565b9050602081019050919050565b60005b83811015610d61578082015181840152602081019050610d46565b60008484015250505050565b6000610d80610d7b84610d12565b61082c565b905082815260208101848484011115610d9c57610d9b6107b6565b5b610da7848285610d43565b509392505050565b600082601f830112610dc457610dc36107b1565b5b8151610dd4848260208601610d6d565b91505092915050565b600067ffffffffffffffff821115610df857610df76107cc565b5b602082029050602081019050919050565b6000610e1c610e1784610ddd565b61082c565b90508083825260208201905060208402830185811115610e3f57610e3e610af8565b5b835b81811015610e8657805167ffffffffffffffff811115610e6457610e636107b1565b5b808601610e718982610daf565b85526020850194505050602081019050610e41565b5050509392505050565b600082601f830112610ea557610ea46107b1565b5b8151610eb5848260208601610e09565b91505092915050565b600067ffffffffffffffff821115610ed957610ed86107cc565b5b602082029050919050565b60008115159050919050565b610ef981610ee4565b8114610f0457600080fd5b50565b600081519050610f1681610ef0565b92915050565b6000610f2f610f2a84610ebe565b61082c565b90508060208402830185811115610f4957610f48610af8565b5b835b81811015610f725780610f5e8882610f07565b845260208401935050602081019050610f4b565b5050509392505050565b600082601f830112610f9157610f906107b1565b5b6003610f9e848285610f1c565b91505092915050565b60006102408284031215610fbe57610fbd610c2d565b5b610fc96101a061082c565b90506000610fd984828501610c37565b6000830152506020610fed84828501610c4c565b602083015250604061100184828501610c4c565b604083015250606061101584828501610ce7565b60608301525060e082015167ffffffffffffffff81111561103957611038610c32565b5b61104584828501610daf565b60808301525061010082015167ffffffffffffffff81111561106a57611069610c32565b5b61107684828501610e90565b60a08301525061012082015167ffffffffffffffff81111561109b5761109a610c32565b5b6110a784828501610daf565b60c08301525061014082015167ffffffffffffffff8111156110cc576110cb610c32565b5b6110d884828501610daf565b60e08301525061016082015167ffffffffffffffff8111156110fd576110fc610c32565b5b61110984828501610daf565b6101008301525061018082015167ffffffffffffffff81111561112f5761112e610c32565b5b61113b84828501610daf565b610120830152506101a082015167ffffffffffffffff81111561116157611160610c32565b5b61116d84828501610daf565b610140830152506101c061118384828501610c4c565b610160830152506101e061119984828501610f7c565b6101808301525092915050565b6000602082840312156111bc576111bb6107a7565b5b600082015167ffffffffffffffff8111156111da576111d96107ac565b5b6111e684828501610fa7565b91505092915050565b600080fd5b600080fd5b6000808585111561120d5761120c6111ef565b5b8386111561121e5761121d6111f4565b5b6001850283019150848603905094509492505050565b600082905092915050565b600082821b905092915050565b60006112588383611234565b8261126381356109cb565b925060208210156112a35761129e7fffffffffffffffffffffffffffffffffffffffffffffffffffffffffffffffff8360200360080261123f565b831692505b505092915050565b600060ff82169050919050565b60008160f81b9050919050565b60006112d0826112b8565b9050919050565b6112e86112e3826112ab565b6112c5565b82525050565b60007fffffffffffffffffffffffffffffffffffffffffffffffffffffffffffffff0082169050919050565b6000819050919050565b611335611330826112ee565b61131a565b82525050565b6000819050919050565b61135661135182610769565b61133b565b82525050565b6000819050919050565b611377611372826109cb565b61135c565b82525050565b600081905092915050565b6000611394838561137d565b93506113a1838584610878565b82840190509392505050565b60006113b982896112d7565b6001820191506113c98288611324565b601f820191506113d98287611345565b6020820191506113e98286611366565b6020820191506113fa828486611388565b9150819050979650505050505050565b60006114168286611366565b602082019150611427828486611388565b9150819050949350505050565b600081519050919050565b600082825260208201905092915050565b600061145b82611434565b611465818561143f565b9350611475818560208601610d43565b61147e816107bb565b840191505092915050565b600060408201905081810360008301526114a38185611450565b905081810360208301526114b78184611450565b90509392505050565b600082825260208201905092915050565b7f4e6174696f6e616c697479207265717569726564000000000000000000000000600082015250565b60006115076014836114c0565b9150611512826114d1565b602082019050919050565b60006020820190508181036000830152611536816114fa565b905091905056fea264697066735822122091da0e76ad9bbdf1029a8464d4705c83e8b746080871b0e8f2df01dbdd13ea0b64736f6c634300081c0033",
          "opcodes": "PUSH1 0xA0 PUSH1 0x40 MSTORE CALLVALUE DUP1 ISZERO PUSH2 0x10 JUMPI PUSH1 0x0 DUP1 REVERT JUMPDEST POP PUSH1 0x40 MLOAD PUSH2 0x1859 CODESIZE SUB DUP1 PUSH2 0x1859 DUP4 CODECOPY DUP2 DUP2 ADD PUSH1 0x40 MSTORE DUP2 ADD SWAP1 PUSH2 0x32 SWAP2 SWAP1 PUSH2 0x25A JUMP JUMPDEST CALLER DUP3 DUP3 DUP2 PUSH20 0xFFFFFFFFFFFFFFFFFFFFFFFFFFFFFFFFFFFFFFFF AND PUSH1 0x80 DUP2 PUSH20 0xFFFFFFFFFFFFFFFFFFFFFFFFFFFFFFFFFFFFFFFF AND DUP2 MSTORE POP POP DUP1 PUSH1 0x0 DUP2 SWAP1 SSTORE POP POP POP PUSH1 0x0 PUSH20 0xFFFFFFFFFFFFFFFFFFFFFFFFFFFFFFFFFFFFFFFF AND DUP2 PUSH20 0xFFFFFFFFFFFFFFFFFFFFFFFFFFFFFFFFFFFFFFFF AND SUB PUSH2 0xE4 JUMPI PUSH1 0x0 PUSH1 0x40 MLOAD PUSH32 0x1E4FBDF700000000000000000000000000000000000000000000000000000000 DUP2 MSTORE PUSH1 0x4 ADD PUSH2 0xDB SWAP2 SWAP1 PUSH2 0x2A9 JUMP JUMPDEST PUSH1 0x40 MLOAD DUP1 SWAP2 SUB SWAP1 REVERT JUMPDEST PUSH2 0xF3 DUP2 PUSH2 0xFB PUSH1 0x20 SHL PUSH1 0x20 SHR JUMP JUMPDEST POP POP POP PUSH2 0x2C4 JUMP JUMPDEST PUSH1 0x0 PUSH1 0x1 PUSH1 0x0 SWAP1 SLOAD SWAP1 PUSH2 0x100 EXP SWAP1 DIV PUSH20 0xFFFFFFFFFFFFFFFFFFFFFFFFFFFFFFFFFFFFFFFF AND SWAP1 POP DUP2 PUSH1 0x1 PUSH1 0x0 PUSH2 0x100 EXP DUP2 SLOAD DUP2 PUSH20 0xFFFFFFFFFFFFFFFFFFFFFFFFFFFFFFFFFFFFFFFF MUL NOT AND SWAP1 DUP4 PUSH20 0xFFFFFFFFFFFFFFFFFFFFFFFFFFFFFFFFFFFFFFFF AND MUL OR SWAP1 SSTORE POP DUP2 PUSH20 0xFFFFFFFFFFFFFFFFFFFFFFFFFFFFFFFFFFFFFFFF AND DUP2 PUSH20 0xFFFFFFFFFFFFFFFFFFFFFFFFFFFFFFFFFFFFFFFF AND PUSH32 0x8BE0079C531659141344CD1FD0A4F28419497F9722A3DAAFE3B4186F6B6457E0 PUSH1 0x40 MLOAD PUSH1 0x40 MLOAD DUP1 SWAP2 SUB SWAP1 LOG3 POP POP JUMP JUMPDEST PUSH1 0x0 DUP1 REVERT JUMPDEST PUSH1 0x0 PUSH20 0xFFFFFFFFFFFFFFFFFFFFFFFFFFFFFFFFFFFFFFFF DUP3 AND SWAP1 POP SWAP2 SWAP1 POP JUMP JUMPDEST PUSH1 0x0 PUSH2 0x1F1 DUP3 PUSH2 0x1C6 JUMP JUMPDEST SWAP1 POP SWAP2 SWAP1 POP JUMP JUMPDEST PUSH2 0x201 DUP2 PUSH2 0x1E6 JUMP JUMPDEST DUP2 EQ PUSH2 0x20C JUMPI PUSH1 0x0 DUP1 REVERT JUMPDEST POP JUMP JUMPDEST PUSH1 0x0 DUP2 MLOAD SWAP1 POP PUSH2 0x21E DUP2 PUSH2 0x1F8 JUMP JUMPDEST SWAP3 SWAP2 POP POP JUMP JUMPDEST PUSH1 0x0 DUP2 SWAP1 POP SWAP2 SWAP1 POP JUMP JUMPDEST PUSH2 0x237 DUP2 PUSH2 0x224 JUMP JUMPDEST DUP2 EQ PUSH2 0x242 JUMPI PUSH1 0x0 DUP1 REVERT JUMPDEST POP JUMP JUMPDEST PUSH1 0x0 DUP2 MLOAD SWAP1 POP PUSH2 0x254 DUP2 PUSH2 0x22E JUMP JUMPDEST SWAP3 SWAP2 POP POP JUMP JUMPDEST PUSH1 0x0 DUP1 PUSH1 0x40 DUP4 DUP6 SUB SLT ISZERO PUSH2 0x271 JUMPI PUSH2 0x270 PUSH2 0x1C1 JUMP JUMPDEST JUMPDEST PUSH1 0x0 PUSH2 0x27F DUP6 DUP3 DUP7 ADD PUSH2 0x20F JUMP JUMPDEST SWAP3 POP POP PUSH1 0x20 PUSH2 0x290 DUP6 DUP3 DUP7 ADD PUSH2 0x245 JUMP JUMPDEST SWAP2 POP POP SWAP3 POP SWAP3 SWAP1 POP JUMP JUMPDEST PUSH2 0x2A3 DUP2 PUSH2 0x1E6 JUMP JUMPDEST DUP3 MSTORE POP POP JUMP JUMPDEST PUSH1 0x0 PUSH1 0x20 DUP3 ADD SWAP1 POP PUSH2 0x2BE PUSH1 0x0 DUP4 ADD DUP5 PUSH2 0x29A JUMP JUMPDEST SWAP3 SWAP2 POP POP JUMP JUMPDEST PUSH1 0x80 MLOAD PUSH2 0x1573 PUSH2 0x2E6 PUSH1 0x0 CODECOPY PUSH1 0x0 DUP2 DUP2 PUSH2 0x1BB ADD MSTORE PUSH2 0x451 ADD MSTORE PUSH2 0x1573 PUSH1 0x0 RETURN INVALID PUSH1 0x80 PUSH1 0x40 MSTORE CALLVALUE DUP1 ISZERO PUSH2 0x10 JUMPI PUSH1 0x0 DUP1 REVERT JUMPDEST POP PUSH1 0x4 CALLDATASIZE LT PUSH2 0x93 JUMPI PUSH1 0x0 CALLDATALOAD PUSH1 0xE0 SHR DUP1 PUSH4 0xADA1B319 GT PUSH2 0x66 JUMPI DUP1 PUSH4 0xADA1B319 EQ PUSH2 0xFA JUMPI DUP1 PUSH4 0xB4BA6FF9 EQ PUSH2 0x12A JUMPI DUP1 PUSH4 0xB564EB27 EQ PUSH2 0x146 JUMPI DUP1 PUSH4 0xD161802B EQ PUSH2 0x164 JUMPI DUP1 PUSH4 0xF2FDE38B EQ PUSH2 0x180 JUMPI PUSH2 0x93 JUMP JUMPDEST DUP1 PUSH4 0x6E62D0A8 EQ PUSH2 0x98 JUMPI DUP1 PUSH4 0x715018A6 EQ PUSH2 0xB6 JUMPI DUP1 PUSH4 0x8D2D8D6A EQ PUSH2 0xC0 JUMPI DUP1 PUSH4 0x8DA5CB5B EQ PUSH2 0xDC JUMPI JUMPDEST PUSH1 0x0 DUP1 REVERT JUMPDEST PUSH2 0xA0 PUSH2 0x19C JUMP JUMPDEST PUSH1 0x40 MLOAD PUSH2 0xAD SWAP2 SWAP1 PUSH2 0x782 JUMP JUMPDEST PUSH1 0x40 MLOAD DUP1 SWAP2 SUB SWAP1 RETURN JUMPDEST PUSH2 0xBE PUSH2 0x1A5 JUMP JUMPDEST STOP JUMPDEST PUSH2 0xDA PUSH1 0x4 DUP1 CALLDATASIZE SUB DUP2 ADD SWAP1 PUSH2 0xD5 SWAP2 SWAP1 PUSH2 0x8F7 JUMP JUMPDEST PUSH2 0x1B9 JUMP JUMPDEST STOP JUMPDEST PUSH2 0xE4 PUSH2 0x265 JUMP JUMPDEST PUSH1 0x40 MLOAD PUSH2 0xF1 SWAP2 SWAP1 PUSH2 0x9B0 JUMP JUMPDEST PUSH1 0x40 MLOAD DUP1 SWAP2 SUB SWAP1 RETURN JUMPDEST PUSH2 0x114 PUSH1 0x4 DUP1 CALLDATASIZE SUB DUP2 ADD SWAP1 PUSH2 0x10F SWAP2 SWAP1 PUSH2 0xA01 JUMP JUMPDEST PUSH2 0x28F JUMP JUMPDEST PUSH1 0x40 MLOAD PUSH2 0x121 SWAP2 SWAP1 PUSH2 0xA7F JUMP JUMPDEST PUSH1 0x40 MLOAD DUP1 SWAP2 SUB SWAP1 RETURN JUMPDEST PUSH2 0x144 PUSH1 0x4 DUP1 CALLDATASIZE SUB DUP2 ADD SWAP1 PUSH2 0x13F SWAP2 SWAP1 PUSH2 0xAC6 JUMP JUMPDEST PUSH2 0x2BE JUMP JUMPDEST STOP JUMPDEST PUSH2 0x14E PUSH2 0x2D2 JUMP JUMPDEST PUSH1 0x40 MLOAD PUSH2 0x15B SWAP2 SWAP1 PUSH2 0xA7F JUMP JUMPDEST PUSH1 0x40 MLOAD DUP1 SWAP2 SUB SWAP1 RETURN JUMPDEST PUSH2 0x17E PUSH1 0x4 DUP1 CALLDATASIZE SUB DUP2 ADD SWAP1 PUSH2 0x179 SWAP2 SWAP1 PUSH2 0xB53 JUMP JUMPDEST PUSH2 0x2D8 JUMP JUMPDEST STOP JUMPDEST PUSH2 0x19A PUSH1 0x4 DUP1 CALLDATASIZE SUB DUP2 ADD SWAP1 PUSH2 0x195 SWAP2 SWAP1 PUSH2 0xC00 JUMP JUMPDEST PUSH2 0x50B JUMP JUMPDEST STOP JUMPDEST PUSH1 0x0 DUP1 SLOAD SWAP1 POP SWAP1 JUMP JUMPDEST PUSH2 0x1AD PUSH2 0x591 JUMP JUMPDEST PUSH2 0x1B7 PUSH1 0x0 PUSH2 0x618 JUMP JUMPDEST JUMP JUMPDEST PUSH32 0x0 PUSH20 0xFFFFFFFFFFFFFFFFFFFFFFFFFFFFFFFFFFFFFFFF AND CALLER PUSH20 0xFFFFFFFFFFFFFFFFFFFFFFFFFFFFFFFFFFFFFFFF AND EQ PUSH2 0x23E JUMPI PUSH1 0x40 MLOAD PUSH32 0x5C427CD900000000000000000000000000000000000000000000000000000000 DUP2 MSTORE PUSH1 0x4 ADD PUSH1 0x40 MLOAD DUP1 SWAP2 SUB SWAP1 REVERT JUMPDEST PUSH1 0x0 DUP3 DUP1 PUSH1 0x20 ADD SWAP1 MLOAD DUP2 ADD SWAP1 PUSH2 0x254 SWAP2 SWAP1 PUSH2 0x11A6 JUMP JUMPDEST SWAP1 POP PUSH2 0x260 DUP2 DUP4 PUSH2 0x6DE JUMP JUMPDEST POP POP POP JUMP JUMPDEST PUSH1 0x0 PUSH1 0x1 PUSH1 0x0 SWAP1 SLOAD SWAP1 PUSH2 0x100 EXP SWAP1 DIV PUSH20 0xFFFFFFFFFFFFFFFFFFFFFFFFFFFFFFFFFFFFFFFF AND SWAP1 POP SWAP1 JUMP JUMPDEST PUSH1 0x0 PUSH32 0xAA3A22B95171A99564D606797E30A87CEE76D573673A637CA4F97CAC80360B2D PUSH1 0x0 SHL SWAP1 POP SWAP4 SWAP3 POP POP POP JUMP JUMPDEST PUSH2 0x2C6 PUSH2 0x591 JUMP JUMPDEST PUSH2 0x2CF DUP2 PUSH2 0x72A JUMP JUMPDEST POP JUMP JUMPDEST PUSH1 0x2 SLOAD DUP2 JUMP JUMPDEST PUSH1 0x20 DUP5 DUP5 SWAP1 POP LT ISZERO PUSH2 0x316 JUMPI PUSH1 0x40 MLOAD PUSH32 0xA512E2FF00000000000000000000000000000000000000000000000000000000 DUP2 MSTORE PUSH1 0x4 ADD PUSH1 0x40 MLOAD DUP1 SWAP2 SUB SWAP1 REVERT JUMPDEST PUSH1 0x40 DUP3 DUP3 SWAP1 POP LT ISZERO PUSH2 0x354 JUMPI PUSH1 0x40 MLOAD PUSH32 0xA512E2FF00000000000000000000000000000000000000000000000000000000 DUP2 MSTORE PUSH1 0x4 ADD PUSH1 0x40 MLOAD DUP1 SWAP2 SUB SWAP1 REVERT JUMPDEST PUSH1 0x0 DUP5 CALLDATALOAD SWAP1 POP PUSH1 0x0 DUP4 DUP4 PUSH1 0x0 SWAP1 PUSH1 0x20 SWAP3 PUSH2 0x370 SWAP4 SWAP3 SWAP2 SWAP1 PUSH2 0x11F9 JUMP JUMPDEST SWAP1 PUSH2 0x37B SWAP2 SWAP1 PUSH2 0x124C JUMP JUMPDEST SWAP1 POP PUSH1 0x0 DUP5 DUP5 PUSH1 0x20 SWAP1 PUSH1 0x40 SWAP3 PUSH2 0x393 SWAP4 SWAP3 SWAP2 SWAP1 PUSH2 0x11F9 JUMP JUMPDEST SWAP1 PUSH2 0x39E SWAP2 SWAP1 PUSH2 0x124C JUMP JUMPDEST SWAP1 POP PUSH1 0x0 DUP6 DUP6 PUSH1 0x40 SWAP1 DUP1 SWAP3 PUSH2 0x3B5 SWAP4 SWAP3 SWAP2 SWAP1 PUSH2 0x11F9 JUMP JUMPDEST DUP1 DUP1 PUSH1 0x1F ADD PUSH1 0x20 DUP1 SWAP2 DIV MUL PUSH1 0x20 ADD PUSH1 0x40 MLOAD SWAP1 DUP2 ADD PUSH1 0x40 MSTORE DUP1 SWAP4 SWAP3 SWAP2 SWAP1 DUP2 DUP2 MSTORE PUSH1 0x20 ADD DUP4 DUP4 DUP1 DUP3 DUP5 CALLDATACOPY PUSH1 0x0 DUP2 DUP5 ADD MSTORE PUSH1 0x1F NOT PUSH1 0x1F DUP3 ADD AND SWAP1 POP DUP1 DUP4 ADD SWAP3 POP POP POP POP POP POP POP SWAP1 POP PUSH1 0x0 PUSH2 0x407 DUP5 DUP5 DUP5 PUSH2 0x28F JUMP JUMPDEST SWAP1 POP PUSH1 0x0 PUSH1 0x2 PUSH1 0x0 PUSH1 0x8 SHL PUSH1 0x0 SLOAD DUP9 DUP14 DUP14 PUSH1 0x20 SWAP1 DUP1 SWAP3 PUSH2 0x429 SWAP4 SWAP3 SWAP2 SWAP1 PUSH2 0x11F9 JUMP JUMPDEST PUSH1 0x40 MLOAD PUSH1 0x20 ADD PUSH2 0x43E SWAP7 SWAP6 SWAP5 SWAP4 SWAP3 SWAP2 SWAP1 PUSH2 0x13AD JUMP JUMPDEST PUSH1 0x40 MLOAD PUSH1 0x20 DUP2 DUP4 SUB SUB DUP2 MSTORE SWAP1 PUSH1 0x40 MSTORE SWAP1 POP PUSH32 0x0 PUSH20 0xFFFFFFFFFFFFFFFFFFFFFFFFFFFFFFFFFFFFFFFF AND PUSH4 0xF7E83AEE DUP3 DUP5 DUP12 DUP12 PUSH1 0x40 MLOAD PUSH1 0x20 ADD PUSH2 0x4A1 SWAP4 SWAP3 SWAP2 SWAP1 PUSH2 0x140A JUMP JUMPDEST PUSH1 0x40 MLOAD PUSH1 0x20 DUP2 DUP4 SUB SUB DUP2 MSTORE SWAP1 PUSH1 0x40 MSTORE PUSH1 0x40 MLOAD DUP4 PUSH4 0xFFFFFFFF AND PUSH1 0xE0 SHL DUP2 MSTORE PUSH1 0x4 ADD PUSH2 0x4CD SWAP3 SWAP2 SWAP1 PUSH2 0x1489 JUMP JUMPDEST PUSH1 0x0 PUSH1 0x40 MLOAD DUP1 DUP4 SUB DUP2 PUSH1 0x0 DUP8 DUP1 EXTCODESIZE ISZERO DUP1 ISZERO PUSH2 0x4E7 JUMPI PUSH1 0x0 DUP1 REVERT JUMPDEST POP GAS CALL ISZERO DUP1 ISZERO PUSH2 0x4FB JUMPI RETURNDATASIZE PUSH1 0x0 DUP1 RETURNDATACOPY RETURNDATASIZE PUSH1 0x0 REVERT JUMPDEST POP POP POP POP POP POP POP POP POP POP POP POP POP POP JUMP JUMPDEST PUSH2 0x513 PUSH2 0x591 JUMP JUMPDEST PUSH1 0x0 PUSH20 0xFFFFFFFFFFFFFFFFFFFFFFFFFFFFFFFFFFFFFFFF AND DUP2 PUSH20 0xFFFFFFFFFFFFFFFFFFFFFFFFFFFFFFFFFFFFFFFF AND SUB PUSH2 0x585 JUMPI PUSH1 0x0 PUSH1 0x40 MLOAD PUSH32 0x1E4FBDF700000000000000000000000000000000000000000000000000000000 DUP2 MSTORE PUSH1 0x4 ADD PUSH2 0x57C SWAP2 SWAP1 PUSH2 0x9B0 JUMP JUMPDEST PUSH1 0x40 MLOAD DUP1 SWAP2 SUB SWAP1 REVERT JUMPDEST PUSH2 0x58E DUP2 PUSH2 0x618 JUMP JUMPDEST POP JUMP JUMPDEST PUSH2 0x599 PUSH2 0x761 JUMP JUMPDEST PUSH20 0xFFFFFFFFFFFFFFFFFFFFFFFFFFFFFFFFFFFFFFFF AND PUSH2 0x5B7 PUSH2 0x265 JUMP JUMPDEST PUSH20 0xFFFFFFFFFFFFFFFFFFFFFFFFFFFFFFFFFFFFFFFF AND EQ PUSH2 0x616 JUMPI PUSH2 0x5DA PUSH2 0x761 JUMP JUMPDEST PUSH1 0x40 MLOAD PUSH32 0x118CDAA700000000000000000000000000000000000000000000000000000000 DUP2 MSTORE PUSH1 0x4 ADD PUSH2 0x60D SWAP2 SWAP1 PUSH2 0x9B0 JUMP JUMPDEST PUSH1 0x40 MLOAD DUP1 SWAP2 SUB SWAP1 REVERT JUMPDEST JUMP JUMPDEST PUSH1 0x0 PUSH1 0x1 PUSH1 0x0 SWAP1 SLOAD SWAP1 PUSH2 0x100 EXP SWAP1 DIV PUSH20 0xFFFFFFFFFFFFFFFFFFFFFFFFFFFFFFFFFFFFFFFF AND SWAP1 POP DUP2 PUSH1 0x1 PUSH1 0x0 PUSH2 0x100 EXP DUP2 SLOAD DUP2 PUSH20 0xFFFFFFFFFFFFFFFFFFFFFFFFFFFFFFFFFFFFFFFF MUL NOT AND SWAP1 DUP4 PUSH20 0xFFFFFFFFFFFFFFFFFFFFFFFFFFFFFFFFFFFFFFFF AND MUL OR SWAP1 SSTORE POP DUP2 PUSH20 0xFFFFFFFFFFFFFFFFFFFFFFFFFFFFFFFFFFFFFFFF AND DUP2 PUSH20 0xFFFFFFFFFFFFFFFFFFFFFFFFFFFFFFFFFFFFFFFF AND PUSH32 0x8BE0079C531659141344CD1FD0A4F28419497F9722A3DAAFE3B4186F6B6457E0 PUSH1 0x40 MLOAD PUSH1 0x40 MLOAD DUP1 SWAP2 SUB SWAP1 LOG3 POP POP JUMP JUMPDEST PUSH1 0x0 DUP3 PUSH1 0xE0 ADD MLOAD MLOAD GT PUSH2 0x726 JUMPI PUSH1 0x40 MLOAD PUSH32 0x8C379A000000000000000000000000000000000000000000000000000000000 DUP2 MSTORE PUSH1 0x4 ADD PUSH2 0x71D SWAP1 PUSH2 0x151D JUMP JUMPDEST PUSH1 0x40 MLOAD DUP1 SWAP2 SUB SWAP1 REVERT JUMPDEST POP POP JUMP JUMPDEST DUP1 PUSH1 0x0 DUP2 SWAP1 SSTORE POP DUP1 PUSH32 0x379705E49518633184CC7E64F6A0C9361E35F275BE47634AFB6C2C603E5311E5 PUSH1 0x40 MLOAD PUSH1 0x40 MLOAD DUP1 SWAP2 SUB SWAP1 LOG2 POP JUMP JUMPDEST PUSH1 0x0 CALLER SWAP1 POP SWAP1 JUMP JUMPDEST PUSH1 0x0 DUP2 SWAP1 POP SWAP2 SWAP1 POP JUMP JUMPDEST PUSH2 0x77C DUP2 PUSH2 0x769 JUMP JUMPDEST DUP3 MSTORE POP POP JUMP JUMPDEST PUSH1 0x0 PUSH1 0x20 DUP3 ADD SWAP1 POP PUSH2 0x797 PUSH1 0x0 DUP4 ADD DUP5 PUSH2 0x773 JUMP JUMPDEST SWAP3 SWAP2 POP POP JUMP JUMPDEST PUSH1 0x0 PUSH1 0x40 MLOAD SWAP1 POP SWAP1 JUMP JUMPDEST PUSH1 0x0 DUP1 REVERT JUMPDEST PUSH1 0x0 DUP1 REVERT JUMPDEST PUSH1 0x0 DUP1 REVERT JUMPDEST PUSH1 0x0 DUP1 REVERT JUMPDEST PUSH1 0x0 PUSH1 0x1F NOT PUSH1 0x1F DUP4 ADD AND SWAP1 POP SWAP2 SWAP1 POP JUMP JUMPDEST PUSH32 0x4E487B7100000000000000000000000000000000000000000000000000000000 PUSH1 0x0 MSTORE PUSH1 0x41 PUSH1 0x4 MSTORE PUSH1 0x24 PUSH1 0x0 REVERT JUMPDEST PUSH2 0x804 DUP3 PUSH2 0x7BB JUMP JUMPDEST DUP2 ADD DUP2 DUP2 LT PUSH8 0xFFFFFFFFFFFFFFFF DUP3 GT OR ISZERO PUSH2 0x823 JUMPI PUSH2 0x822 PUSH2 0x7CC JUMP JUMPDEST JUMPDEST DUP1 PUSH1 0x40 MSTORE POP POP POP JUMP JUMPDEST PUSH1 0x0 PUSH2 0x836 PUSH2 0x79D JUMP JUMPDEST SWAP1 POP PUSH2 0x842 DUP3 DUP3 PUSH2 0x7FB JUMP JUMPDEST SWAP2 SWAP1 POP JUMP JUMPDEST PUSH1 0x0 PUSH8 0xFFFFFFFFFFFFFFFF DUP3 GT ISZERO PUSH2 0x862 JUMPI PUSH2 0x861 PUSH2 0x7CC JUMP JUMPDEST JUMPDEST PUSH2 0x86B DUP3 PUSH2 0x7BB JUMP JUMPDEST SWAP1 POP PUSH1 0x20 DUP2 ADD SWAP1 POP SWAP2 SWAP1 POP JUMP JUMPDEST DUP3 DUP2 DUP4 CALLDATACOPY PUSH1 0x0 DUP4 DUP4 ADD MSTORE POP POP POP JUMP JUMPDEST PUSH1 0x0 PUSH2 0x89A PUSH2 0x895 DUP5 PUSH2 0x847 JUMP JUMPDEST PUSH2 0x82C JUMP JUMPDEST SWAP1 POP DUP3 DUP2 MSTORE PUSH1 0x20 DUP2 ADD DUP5 DUP5 DUP5 ADD GT ISZERO PUSH2 0x8B6 JUMPI PUSH2 0x8B5 PUSH2 0x7B6 JUMP JUMPDEST JUMPDEST PUSH2 0x8C1 DUP5 DUP3 DUP6 PUSH2 0x878 JUMP JUMPDEST POP SWAP4 SWAP3 POP POP POP JUMP JUMPDEST PUSH1 0x0 DUP3 PUSH1 0x1F DUP4 ADD SLT PUSH2 0x8DE JUMPI PUSH2 0x8DD PUSH2 0x7B1 JUMP JUMPDEST JUMPDEST DUP2 CALLDATALOAD PUSH2 0x8EE DUP5 DUP3 PUSH1 0x20 DUP7 ADD PUSH2 0x887 JUMP JUMPDEST SWAP2 POP POP SWAP3 SWAP2 POP POP JUMP JUMPDEST PUSH1 0x0 DUP1 PUSH1 0x40 DUP4 DUP6 SUB SLT ISZERO PUSH2 0x90E JUMPI PUSH2 0x90D PUSH2 0x7A7 JUMP JUMPDEST JUMPDEST PUSH1 0x0 DUP4 ADD CALLDATALOAD PUSH8 0xFFFFFFFFFFFFFFFF DUP2 GT ISZERO PUSH2 0x92C JUMPI PUSH2 0x92B PUSH2 0x7AC JUMP JUMPDEST JUMPDEST PUSH2 0x938 DUP6 DUP3 DUP7 ADD PUSH2 0x8C9 JUMP JUMPDEST SWAP3 POP POP PUSH1 0x20 DUP4 ADD CALLDATALOAD PUSH8 0xFFFFFFFFFFFFFFFF DUP2 GT ISZERO PUSH2 0x959 JUMPI PUSH2 0x958 PUSH2 0x7AC JUMP JUMPDEST JUMPDEST PUSH2 0x965 DUP6 DUP3 DUP7 ADD PUSH2 0x8C9 JUMP JUMPDEST SWAP2 POP POP SWAP3 POP SWAP3 SWAP1 POP JUMP JUMPDEST PUSH1 0x0 PUSH20 0xFFFFFFFFFFFFFFFFFFFFFFFFFFFFFFFFFFFFFFFF DUP3 AND SWAP1 POP SWAP2 SWAP1 POP JUMP JUMPDEST PUSH1 0x0 PUSH2 0x99A DUP3 PUSH2 0x96F JUMP JUMPDEST SWAP1 POP SWAP2 SWAP1 POP JUMP JUMPDEST PUSH2 0x9AA DUP2 PUSH2 0x98F JUMP JUMPDEST DUP3 MSTORE POP POP JUMP JUMPDEST PUSH1 0x0 PUSH1 0x20 DUP3 ADD SWAP1 POP PUSH2 0x9C5 PUSH1 0x0 DUP4 ADD DUP5 PUSH2 0x9A1 JUMP JUMPDEST SWAP3 SWAP2 POP POP JUMP JUMPDEST PUSH1 0x0 DUP2 SWAP1 POP SWAP2 SWAP1 POP JUMP JUMPDEST PUSH2 0x9DE DUP2 PUSH2 0x9CB JUMP JUMPDEST DUP2 EQ PUSH2 0x9E9 JUMPI PUSH1 0x0 DUP1 REVERT JUMPDEST POP JUMP JUMPDEST PUSH1 0x0 DUP2 CALLDATALOAD SWAP1 POP PUSH2 0x9FB DUP2 PUSH2 0x9D5 JUMP JUMPDEST SWAP3 SWAP2 POP POP JUMP JUMPDEST PUSH1 0x0 DUP1 PUSH1 0x0 PUSH1 0x60 DUP5 DUP7 SUB SLT ISZERO PUSH2 0xA1A JUMPI PUSH2 0xA19 PUSH2 0x7A7 JUMP JUMPDEST JUMPDEST PUSH1 0x0 PUSH2 0xA28 DUP7 DUP3 DUP8 ADD PUSH2 0x9EC JUMP JUMPDEST SWAP4 POP POP PUSH1 0x20 PUSH2 0xA39 DUP7 DUP3 DUP8 ADD PUSH2 0x9EC JUMP JUMPDEST SWAP3 POP POP PUSH1 0x40 DUP5 ADD CALLDATALOAD PUSH8 0xFFFFFFFFFFFFFFFF DUP2 GT ISZERO PUSH2 0xA5A JUMPI PUSH2 0xA59 PUSH2 0x7AC JUMP JUMPDEST JUMPDEST PUSH2 0xA66 DUP7 DUP3 DUP8 ADD PUSH2 0x8C9 JUMP JUMPDEST SWAP2 POP POP SWAP3 POP SWAP3 POP SWAP3 JUMP JUMPDEST PUSH2 0xA79 DUP2 PUSH2 0x9CB JUMP JUMPDEST DUP3 MSTORE POP POP JUMP JUMPDEST PUSH1 0x0 PUSH1 0x20 DUP3 ADD SWAP1 POP PUSH2 0xA94 PUSH1 0x0 DUP4 ADD DUP5 PUSH2 0xA70 JUMP JUMPDEST SWAP3 SWAP2 POP POP JUMP JUMPDEST PUSH2 0xAA3 DUP2 PUSH2 0x769 JUMP JUMPDEST DUP2 EQ PUSH2 0xAAE JUMPI PUSH1 0x0 DUP1 REVERT JUMPDEST POP JUMP JUMPDEST PUSH1 0x0 DUP2 CALLDATALOAD SWAP1 POP PUSH2 0xAC0 DUP2 PUSH2 0xA9A JUMP JUMPDEST SWAP3 SWAP2 POP POP JUMP JUMPDEST PUSH1 0x0 PUSH1 0x20 DUP3 DUP5 SUB SLT ISZERO PUSH2 0xADC JUMPI PUSH2 0xADB PUSH2 0x7A7 JUMP JUMPDEST JUMPDEST PUSH1 0x0 PUSH2 0xAEA DUP5 DUP3 DUP6 ADD PUSH2 0xAB1 JUMP JUMPDEST SWAP2 POP POP SWAP3 SWAP2 POP POP JUMP JUMPDEST PUSH1 0x0 DUP1 REVERT JUMPDEST PUSH1 0x0 DUP1 REVERT JUMPDEST PUSH1 0x0 DUP1 DUP4 PUSH1 0x1F DUP5 ADD SLT PUSH2 0xB13 JUMPI PUSH2 0xB12 PUSH2 0x7B1 JUMP JUMPDEST JUMPDEST DUP3 CALLDATALOAD SWAP1 POP PUSH8 0xFFFFFFFFFFFFFFFF DUP2 GT ISZERO PUSH2 0xB30 JUMPI PUSH2 0xB2F PUSH2 0xAF3 JUMP JUMPDEST JUMPDEST PUSH1 0x20 DUP4 ADD SWAP2 POP DUP4 PUSH1 0x1 DUP3 MUL DUP4 ADD GT ISZERO PUSH2 0xB4C JUMPI PUSH2 0xB4B PUSH2 0xAF8 JUMP JUMPDEST JUMPDEST SWAP3 POP SWAP3 SWAP1 POP JUMP JUMPDEST PUSH1 0x0 DUP1 PUSH1 0x0 DUP1 PUSH1 0x40 DUP6 DUP8 SUB SLT ISZERO PUSH2 0xB6D JUMPI PUSH2 0xB6C PUSH2 0x7A7 JUMP JUMPDEST JUMPDEST PUSH1 0x0 DUP6 ADD CALLDATALOAD PUSH8 0xFFFFFFFFFFFFFFFF DUP2 GT ISZERO PUSH2 0xB8B JUMPI PUSH2 0xB8A PUSH2 0x7AC JUMP JUMPDEST JUMPDEST PUSH2 0xB97 DUP8 DUP3 DUP9 ADD PUSH2 0xAFD JUMP JUMPDEST SWAP5 POP SWAP5 POP POP PUSH1 0x20 DUP6 ADD CALLDATALOAD PUSH8 0xFFFFFFFFFFFFFFFF DUP2 GT ISZERO PUSH2 0xBBA JUMPI PUSH2 0xBB9 PUSH2 0x7AC JUMP JUMPDEST JUMPDEST PUSH2 0xBC6 DUP8 DUP3 DUP9 ADD PUSH2 0xAFD JUMP JUMPDEST SWAP3 POP SWAP3 POP POP SWAP3 SWAP6 SWAP2 SWAP5 POP SWAP3 POP JUMP JUMPDEST PUSH2 0xBDD DUP2 PUSH2 0x98F JUMP JUMPDEST DUP2 EQ PUSH2 0xBE8 JUMPI PUSH1 0x0 DUP1 REVERT JUMPDEST POP JUMP JUMPDEST PUSH1 0x0 DUP2 CALLDATALOAD SWAP1 POP PUSH2 0xBFA DUP2 PUSH2 0xBD4 JUMP JUMPDEST SWAP3 SWAP2 POP POP JUMP JUMPDEST PUSH1 0x0 PUSH1 0x20 DUP3 DUP5 SUB SLT ISZERO PUSH2 0xC16 JUMPI PUSH2 0xC15 PUSH2 0x7A7 JUMP JUMPDEST JUMPDEST PUSH1 0x0 PUSH2 0xC24 DUP5 DUP3 DUP6 ADD PUSH2 0xBEB JUMP JUMPDEST SWAP2 POP POP SWAP3 SWAP2 POP POP JUMP JUMPDEST PUSH1 0x0 DUP1 REVERT JUMPDEST PUSH1 0x0 DUP1 REVERT JUMPDEST PUSH1 0x0 DUP2 MLOAD SWAP1 POP PUSH2 0xC46 DUP2 PUSH2 0x9D5 JUMP JUMPDEST SWAP3 SWAP2 POP POP JUMP JUMPDEST PUSH1 0x0 DUP2 MLOAD SWAP1 POP PUSH2 0xC5B DUP2 PUSH2 0xA9A JUMP JUMPDEST SWAP3 SWAP2 POP POP JUMP JUMPDEST PUSH1 0x0 PUSH8 0xFFFFFFFFFFFFFFFF DUP3 GT ISZERO PUSH2 0xC7C JUMPI PUSH2 0xC7B PUSH2 0x7CC JUMP JUMPDEST JUMPDEST PUSH1 0x20 DUP3 MUL SWAP1 POP SWAP2 SWAP1 POP JUMP JUMPDEST PUSH1 0x0 PUSH2 0xC9A PUSH2 0xC95 DUP5 PUSH2 0xC61 JUMP JUMPDEST PUSH2 0x82C JUMP JUMPDEST SWAP1 POP DUP1 PUSH1 0x20 DUP5 MUL DUP4 ADD DUP6 DUP2 GT ISZERO PUSH2 0xCB4 JUMPI PUSH2 0xCB3 PUSH2 0xAF8 JUMP JUMPDEST JUMPDEST DUP4 JUMPDEST DUP2 DUP2 LT ISZERO PUSH2 0xCDD JUMPI DUP1 PUSH2 0xCC9 DUP9 DUP3 PUSH2 0xC4C JUMP JUMPDEST DUP5 MSTORE PUSH1 0x20 DUP5 ADD SWAP4 POP POP PUSH1 0x20 DUP2 ADD SWAP1 POP PUSH2 0xCB6 JUMP JUMPDEST POP POP POP SWAP4 SWAP3 POP POP POP JUMP JUMPDEST PUSH1 0x0 DUP3 PUSH1 0x1F DUP4 ADD SLT PUSH2 0xCFC JUMPI PUSH2 0xCFB PUSH2 0x7B1 JUMP JUMPDEST JUMPDEST PUSH1 0x4 PUSH2 0xD09 DUP5 DUP3 DUP6 PUSH2 0xC87 JUMP JUMPDEST SWAP2 POP POP SWAP3 SWAP2 POP POP JUMP JUMPDEST PUSH1 0x0 PUSH8 0xFFFFFFFFFFFFFFFF DUP3 GT ISZERO PUSH2 0xD2D JUMPI PUSH2 0xD2C PUSH2 0x7CC JUMP JUMPDEST JUMPDEST PUSH2 0xD36 DUP3 PUSH2 0x7BB JUMP JUMPDEST SWAP1 POP PUSH1 0x20 DUP2 ADD SWAP1 POP SWAP2 SWAP1 POP JUMP JUMPDEST PUSH1 0x0 JUMPDEST DUP4 DUP2 LT ISZERO PUSH2 0xD61 JUMPI DUP1 DUP3 ADD MLOAD DUP2 DUP5 ADD MSTORE PUSH1 0x20 DUP2 ADD SWAP1 POP PUSH2 0xD46 JUMP JUMPDEST PUSH1 0x0 DUP5 DUP5 ADD MSTORE POP POP POP POP JUMP JUMPDEST PUSH1 0x0 PUSH2 0xD80 PUSH2 0xD7B DUP5 PUSH2 0xD12 JUMP JUMPDEST PUSH2 0x82C JUMP JUMPDEST SWAP1 POP DUP3 DUP2 MSTORE PUSH1 0x20 DUP2 ADD DUP5 DUP5 DUP5 ADD GT ISZERO PUSH2 0xD9C JUMPI PUSH2 0xD9B PUSH2 0x7B6 JUMP JUMPDEST JUMPDEST PUSH2 0xDA7 DUP5 DUP3 DUP6 PUSH2 0xD43 JUMP JUMPDEST POP SWAP4 SWAP3 POP POP POP JUMP JUMPDEST PUSH1 0x0 DUP3 PUSH1 0x1F DUP4 ADD SLT PUSH2 0xDC4 JUMPI PUSH2 0xDC3 PUSH2 0x7B1 JUMP JUMPDEST JUMPDEST DUP2 MLOAD PUSH2 0xDD4 DUP5 DUP3 PUSH1 0x20 DUP7 ADD PUSH2 0xD6D JUMP JUMPDEST SWAP2 POP POP SWAP3 SWAP2 POP POP JUMP JUMPDEST PUSH1 0x0 PUSH8 0xFFFFFFFFFFFFFFFF DUP3 GT ISZERO PUSH2 0xDF8 JUMPI PUSH2 0xDF7 PUSH2 0x7CC JUMP JUMPDEST JUMPDEST PUSH1 0x20 DUP3 MUL SWAP1 POP PUSH1 0x20 DUP2 ADD SWAP1 POP SWAP2 SWAP1 POP JUMP JUMPDEST PUSH1 0x0 PUSH2 0xE1C PUSH2 0xE17 DUP5 PUSH2 0xDDD JUMP JUMPDEST PUSH2 0x82C JUMP JUMPDEST SWAP1 POP DUP1 DUP4 DUP3 MSTORE PUSH1 0x20 DUP3 ADD SWAP1 POP PUSH1 0x20 DUP5 MUL DUP4 ADD DUP6 DUP2 GT ISZERO PUSH2 0xE3F JUMPI PUSH2 0xE3E PUSH2 0xAF8 JUMP JUMPDEST JUMPDEST DUP4 JUMPDEST DUP2 DUP2 LT ISZERO PUSH2 0xE86 JUMPI DUP1 MLOAD PUSH8 0xFFFFFFFFFFFFFFFF DUP2 GT ISZERO PUSH2 0xE64 JUMPI PUSH2 0xE63 PUSH2 0x7B1 JUMP JUMPDEST JUMPDEST DUP1 DUP7 ADD PUSH2 0xE71 DUP10 DUP3 PUSH2 0xDAF JUMP JUMPDEST DUP6 MSTORE PUSH1 0x20 DUP6 ADD SWAP5 POP POP POP PUSH1 0x20 DUP2 ADD SWAP1 POP PUSH2 0xE41 JUMP JUMPDEST POP POP POP SWAP4 SWAP3 POP POP POP JUMP JUMPDEST PUSH1 0x0 DUP3 PUSH1 0x1F DUP4 ADD SLT PUSH2 0xEA5 JUMPI PUSH2 0xEA4 PUSH2 0x7B1 JUMP JUMPDEST JUMPDEST DUP2 MLOAD PUSH2 0xEB5 DUP5 DUP3 PUSH1 0x20 DUP7 ADD PUSH2 0xE09 JUMP JUMPDEST SWAP2 POP POP SWAP3 SWAP2 POP POP JUMP JUMPDEST PUSH1 0x0 PUSH8 0xFFFFFFFFFFFFFFFF DUP3 GT ISZERO PUSH2 0xED9 JUMPI PUSH2 0xED8 PUSH2 0x7CC JUMP JUMPDEST JUMPDEST PUSH1 0x20 DUP3 MUL SWAP1 POP SWAP2 SWAP1 POP JUMP JUMPDEST PUSH1 0x0 DUP2 ISZERO ISZERO SWAP1 POP SWAP2 SWAP1 POP JUMP JUMPDEST PUSH2 0xEF9 DUP2 PUSH2 0xEE4 JUMP JUMPDEST DUP2 EQ PUSH2 0xF04 JUMPI PUSH1 0x0 DUP1 REVERT JUMPDEST POP JUMP JUMPDEST PUSH1 0x0 DUP2 MLOAD SWAP1 POP PUSH2 0xF16 DUP2 PUSH2 0xEF0 JUMP JUMPDEST SWAP3 SWAP2 POP POP JUMP JUMPDEST PUSH1 0x0 PUSH2 0xF2F PUSH2 0xF2A DUP5 PUSH2 0xEBE JUMP JUMPDEST PUSH2 0x82C JUMP JUMPDEST SWAP1 POP DUP1 PUSH1 0x20 DUP5 MUL DUP4 ADD DUP6 DUP2 GT ISZERO PUSH2 0xF49 JUMPI PUSH2 0xF48 PUSH2 0xAF8 JUMP JUMPDEST JUMPDEST DUP4 JUMPDEST DUP2 DUP2 LT ISZERO PUSH2 0xF72 JUMPI DUP1 PUSH2 0xF5E DUP9 DUP3 PUSH2 0xF07 JUMP JUMPDEST DUP5 MSTORE PUSH1 0x20 DUP5 ADD SWAP4 POP POP PUSH1 0x20 DUP2 ADD SWAP1 POP PUSH2 0xF4B JUMP JUMPDEST POP POP POP SWAP4 SWAP3 POP POP POP JUMP JUMPDEST PUSH1 0x0 DUP3 PUSH1 0x1F DUP4 ADD SLT PUSH2 0xF91 JUMPI PUSH2 0xF90 PUSH2 0x7B1 JUMP JUMPDEST JUMPDEST PUSH1 0x3 PUSH2 0xF9E DUP5 DUP3 DUP6 PUSH2 0xF1C JUMP JUMPDEST SWAP2 POP POP SWAP3 SWAP2 POP POP JUMP JUMPDEST PUSH1 0x0 PUSH2 0x240 DUP3 DUP5 SUB SLT ISZERO PUSH2 0xFBE JUMPI PUSH2 0xFBD PUSH2 0xC2D JUMP JUMPDEST JUMPDEST PUSH2 0xFC9 PUSH2 0x1A0 PUSH2 0x82C JUMP JUMPDEST SWAP1 POP PUSH1 0x0 PUSH2 0xFD9 DUP5 DUP3 DUP6 ADD PUSH2 0xC37 JUMP JUMPDEST PUSH1 0x0 DUP4 ADD MSTORE POP PUSH1 0x20 PUSH2 0xFED DUP5 DUP3 DUP6 ADD PUSH2 0xC4C JUMP JUMPDEST PUSH1 0x20 DUP4 ADD MSTORE POP PUSH1 0x40 PUSH2 0x1001 DUP5 DUP3 DUP6 ADD PUSH2 0xC4C JUMP JUMPDEST PUSH1 0x40 DUP4 ADD MSTORE POP PUSH1 0x60 PUSH2 0x1015 DUP5 DUP3 DUP6 ADD PUSH2 0xCE7 JUMP JUMPDEST PUSH1 0x60 DUP4 ADD MSTORE POP PUSH1 0xE0 DUP3 ADD MLOAD PUSH8 0xFFFFFFFFFFFFFFFF DUP2 GT ISZERO PUSH2 0x1039 JUMPI PUSH2 0x1038 PUSH2 0xC32 JUMP JUMPDEST JUMPDEST PUSH2 0x1045 DUP5 DUP3 DUP6 ADD PUSH2 0xDAF JUMP JUMPDEST PUSH1 0x80 DUP4 ADD MSTORE POP PUSH2 0x100 DUP3 ADD MLOAD PUSH8 0xFFFFFFFFFFFFFFFF DUP2 GT ISZERO PUSH2 0x106A JUMPI PUSH2 0x1069 PUSH2 0xC32 JUMP JUMPDEST JUMPDEST PUSH2 0x1076 DUP5 DUP3 DUP6 ADD PUSH2 0xE90 JUMP JUMPDEST PUSH1 0xA0 DUP4 ADD MSTORE POP PUSH2 0x120 DUP3 ADD MLOAD PUSH8 0xFFFFFFFFFFFFFFFF DUP2 GT ISZERO PUSH2 0x109B JUMPI PUSH2 0x109A PUSH2 0xC32 JUMP JUMPDEST JUMPDEST PUSH2 0x10A7 DUP5 DUP3 DUP6 ADD PUSH2 0xDAF JUMP JUMPDEST PUSH1 0xC0 DUP4 ADD MSTORE POP PUSH2 0x140 DUP3 ADD MLOAD PUSH8 0xFFFFFFFFFFFFFFFF DUP2 GT ISZERO PUSH2 0x10CC JUMPI PUSH2 0x10CB PUSH2 0xC32 JUMP JUMPDEST JUMPDEST PUSH2 0x10D8 DUP5 DUP3 DUP6 ADD PUSH2 0xDAF JUMP JUMPDEST PUSH1 0xE0 DUP4 ADD MSTORE POP PUSH2 0x160 DUP3 ADD MLOAD PUSH8 0xFFFFFFFFFFFFFFFF DUP2 GT ISZERO PUSH2 0x10FD JUMPI PUSH2 0x10FC PUSH2 0xC32 JUMP JUMPDEST JUMPDEST PUSH2 0x1109 DUP5 DUP3 DUP6 ADD PUSH2 0xDAF JUMP JUMPDEST PUSH2 0x100 DUP4 ADD MSTORE POP PUSH2 0x180 DUP3 ADD MLOAD PUSH8 0xFFFFFFFFFFFFFFFF DUP2 GT ISZERO PUSH2 0x112F JUMPI PUSH2 0x112E PUSH2 0xC32 JUMP JUMPDEST JUMPDEST PUSH2 0x113B DUP5 DUP3 DUP6 ADD PUSH2 0xDAF JUMP JUMPDEST PUSH2 0x120 DUP4 ADD MSTORE POP PUSH2 0x1A0 DUP3 ADD MLOAD PUSH8 0xFFFFFFFFFFFFFFFF DUP2 GT ISZERO PUSH2 0x1161 JUMPI PUSH2 0x1160 PUSH2 0xC32 JUMP JUMPDEST JUMPDEST PUSH2 0x116D DUP5 DUP3 DUP6 ADD PUSH2 0xDAF JUMP JUMPDEST PUSH2 0x140 DUP4 ADD MSTORE POP PUSH2 0x1C0 PUSH2 0x1183 DUP5 DUP3 DUP6 ADD PUSH2 0xC4C JUMP JUMPDEST PUSH2 0x160 DUP4 ADD MSTORE POP PUSH2 0x1E0 PUSH2 0x1199 DUP5 DUP3 DUP6 ADD PUSH2 0xF7C JUMP JUMPDEST PUSH2 0x180 DUP4 ADD MSTORE POP SWAP3 SWAP2 POP POP JUMP JUMPDEST PUSH1 0x0 PUSH1 0x20 DUP3 DUP5 SUB SLT ISZERO PUSH2 0x11BC JUMPI PUSH2 0x11BB PUSH2 0x7A7 JUMP JUMPDEST JUMPDEST PUSH1 0x0 DUP3 ADD MLOAD PUSH8 0xFFFFFFFFFFFFFFFF DUP2 GT ISZERO PUSH2 0x11DA JUMPI PUSH2 0x11D9 PUSH2 0x7AC JUMP JUMPDEST JUMPDEST PUSH2 0x11E6 DUP5 DUP3 DUP6 ADD PUSH2 0xFA7 JUMP JUMPDEST SWAP2 POP POP SWAP3 SWAP2 POP POP JUMP JUMPDEST PUSH1 0x0 DUP1 REVERT JUMPDEST PUSH1 0x0 DUP1 REVERT JUMPDEST PUSH1 0x0 DUP1 DUP6 DUP6 GT ISZERO PUSH2 0x120D JUMPI PUSH2 0x120C PUSH2 0x11EF JUMP JUMPDEST JUMPDEST DUP4 DUP7 GT ISZERO PUSH2 0x121E JUMPI PUSH2 0x121D PUSH2 0x11F4 JUMP JUMPDEST JUMPDEST PUSH1 0x1 DUP6 MUL DUP4 ADD SWAP2 POP DUP5 DUP7 SUB SWAP1 POP SWAP5 POP SWAP5 SWAP3 POP POP POP JUMP JUMPDEST PUSH1 0x0 DUP3 SWAP1 POP SWAP3 SWAP2 POP POP JUMP JUMPDEST PUSH1 0x0 DUP3 DUP3 SHL SWAP1 POP SWAP3 SWAP2 POP POP JUMP JUMPDEST PUSH1 0x0 PUSH2 0x1258 DUP4 DUP4 PUSH2 0x1234 JUMP JUMPDEST DUP3 PUSH2 0x1263 DUP2 CALLDATALOAD PUSH2 0x9CB JUMP JUMPDEST SWAP3 POP PUSH1 0x20 DUP3 LT ISZERO PUSH2 0x12A3 JUMPI PUSH2 0x129E PUSH32 0xFFFFFFFFFFFFFFFFFFFFFFFFFFFFFFFFFFFFFFFFFFFFFFFFFFFFFFFFFFFFFFFF DUP4 PUSH1 0x20 SUB PUSH1 0x8 MUL PUSH2 0x123F JUMP JUMPDEST DUP4 AND SWAP3 POP JUMPDEST POP POP SWAP3 SWAP2 POP POP JUMP JUMPDEST PUSH1 0x0 PUSH1 0xFF DUP3 AND SWAP1 POP SWAP2 SWAP1 POP JUMP JUMPDEST PUSH1 0x0 DUP2 PUSH1 0xF8 SHL SWAP1 POP SWAP2 SWAP1 POP JUMP JUMPDEST PUSH1 0x0 PUSH2 0x12D0 DUP3 PUSH2 0x12B8 JUMP JUMPDEST SWAP1 POP SWAP2 SWAP1 POP JUMP JUMPDEST PUSH2 0x12E8 PUSH2 0x12E3 DUP3 PUSH2 0x12AB JUMP JUMPDEST PUSH2 0x12C5 JUMP JUMPDEST DUP3 MSTORE POP POP JUMP JUMPDEST PUSH1 0x0 PUSH32 0xFFFFFFFFFFFFFFFFFFFFFFFFFFFFFFFFFFFFFFFFFFFFFFFFFFFFFFFFFFFFFF00 DUP3 AND SWAP1 POP SWAP2 SWAP1 POP JUMP JUMPDEST PUSH1 0x0 DUP2 SWAP1 POP SWAP2 SWAP1 POP JUMP JUMPDEST PUSH2 0x1335 PUSH2 0x1330 DUP3 PUSH2 0x12EE JUMP JUMPDEST PUSH2 0x131A JUMP JUMPDEST DUP3 MSTORE POP POP JUMP JUMPDEST PUSH1 0x0 DUP2 SWAP1 POP SWAP2 SWAP1 POP JUMP JUMPDEST PUSH2 0x1356 PUSH2 0x1351 DUP3 PUSH2 0x769 JUMP JUMPDEST PUSH2 0x133B JUMP JUMPDEST DUP3 MSTORE POP POP JUMP JUMPDEST PUSH1 0x0 DUP2 SWAP1 POP SWAP2 SWAP1 POP JUMP JUMPDEST PUSH2 0x1377 PUSH2 0x1372 DUP3 PUSH2 0x9CB JUMP JUMPDEST PUSH2 0x135C JUMP JUMPDEST DUP3 MSTORE POP POP JUMP JUMPDEST PUSH1 0x0 DUP2 SWAP1 POP SWAP3 SWAP2 POP POP JUMP JUMPDEST PUSH1 0x0 PUSH2 0x1394 DUP4 DUP6 PUSH2 0x137D JUMP JUMPDEST SWAP4 POP PUSH2 0x13A1 DUP4 DUP6 DUP5 PUSH2 0x878 JUMP JUMPDEST DUP3 DUP5 ADD SWAP1 POP SWAP4 SWAP3 POP POP POP JUMP JUMPDEST PUSH1 0x0 PUSH2 0x13B9 DUP3 DUP10 PUSH2 0x12D7 JUMP JUMPDEST PUSH1 0x1 DUP3 ADD SWAP2 POP PUSH2 0x13C9 DUP3 DUP9 PUSH2 0x1324 JUMP JUMPDEST PUSH1 0x1F DUP3 ADD SWAP2 POP PUSH2 0x13D9 DUP3 DUP8 PUSH2 0x1345 JUMP JUMPDEST PUSH1 0x20 DUP3 ADD SWAP2 POP PUSH2 0x13E9 DUP3 DUP7 PUSH2 0x1366 JUMP JUMPDEST PUSH1 0x20 DUP3 ADD SWAP2 POP PUSH2 0x13FA DUP3 DUP5 DUP7 PUSH2 0x1388 JUMP JUMPDEST SWAP2 POP DUP2 SWAP1 POP SWAP8 SWAP7 POP POP POP POP POP POP POP JUMP JUMPDEST PUSH1 0x0 PUSH2 0x1416 DUP3 DUP7 PUSH2 0x1366 JUMP JUMPDEST PUSH1 0x20 DUP3 ADD SWAP2 POP PUSH2 0x1427 DUP3 DUP5 DUP7 PUSH2 0x1388 JUMP JUMPDEST SWAP2 POP DUP2 SWAP1 POP SWAP5 SWAP4 POP POP POP POP JUMP JUMPDEST PUSH1 0x0 DUP2 MLOAD SWAP1 POP SWAP2 SWAP1 POP JUMP JUMPDEST PUSH1 0x0 DUP3 DUP3 MSTORE PUSH1 0x20 DUP3 ADD SWAP1 POP SWAP3 SWAP2 POP POP JUMP JUMPDEST PUSH1 0x0 PUSH2 0x145B DUP3 PUSH2 0x1434 JUMP JUMPDEST PUSH2 0x1465 DUP2 DUP6 PUSH2 0x143F JUMP JUMPDEST SWAP4 POP PUSH2 0x1475 DUP2 DUP6 PUSH1 0x20 DUP7 ADD PUSH2 0xD43 JUMP JUMPDEST PUSH2 0x147E DUP2 PUSH2 0x7BB JUMP JUMPDEST DUP5 ADD SWAP2 POP POP SWAP3 SWAP2 POP POP JUMP JUMPDEST PUSH1 0x0 PUSH1 0x40 DUP3 ADD SWAP1 POP DUP2 DUP2 SUB PUSH1 0x0 DUP4 ADD MSTORE PUSH2 0x14A3 DUP2 DUP6 PUSH2 0x1450 JUMP JUMPDEST SWAP1 POP DUP2 DUP2 SUB PUSH1 0x20 DUP4 ADD MSTORE PUSH2 0x14B7 DUP2 DUP5 PUSH2 0x1450 JUMP JUMPDEST SWAP1 POP SWAP4 SWAP3 POP POP POP JUMP JUMPDEST PUSH1 0x0 DUP3 DUP3 MSTORE PUSH1 0x20 DUP3 ADD SWAP1 POP SWAP3 SWAP2 POP POP JUMP JUMPDEST PUSH32 0x4E6174696F6E616C697479207265717569726564000000000000000000000000 PUSH1 0x0 DUP3 ADD MSTORE POP JUMP JUMPDEST PUSH1 0x0 PUSH2 0x1507 PUSH1 0x14 DUP4 PUSH2 0x14C0 JUMP JUMPDEST SWAP2 POP PUSH2 0x1512 DUP3 PUSH2 0x14D1 JUMP JUMPDEST PUSH1 0x20 DUP3 ADD SWAP1 POP SWAP2 SWAP1 POP JUMP JUMPDEST PUSH1 0x0 PUSH1 0x20 DUP3 ADD SWAP1 POP DUP2 DUP2 SUB PUSH1 0x0 DUP4 ADD MSTORE PUSH2 0x1536 DUP2 PUSH2 0x14FA JUMP JUMPDEST SWAP1 POP SWAP2 SWAP1 POP JUMP INVALID LOG2 PUSH5 0x6970667358 0x22 SLT KECCAK256 SWAP2 0xDA 0xE PUSH23 0xAD9BBDF1029A8464D4705C83E8B746080871B0E8F2DF01 0xDB 0xDD SGT 0xEA SIGNEXTEND PUSH5 0x736F6C6343 STOP ADDMOD SHR STOP CALLER "
        },
        "methodIdentifiers": {
          "configId()": "b564eb27",
          "getConfigId(bytes32,bytes32,bytes)": "ada1b319",
          "onVerificationSuccess(bytes,bytes)": "8d2d8d6a",
          "owner()": "8da5cb5b",
          "renounceOwnership()": "715018a6",
          "scope()": "6e62d0a8",
          "setScope(uint256)": "b4ba6ff9",
          "transferOwnership(address)": "f2fde38b",
          "verifySelfProof(bytes,bytes)": "d161802b"
        }
      }
    }
  }
}